:020000040800F2
:100000000000022011320008391100083B110008DD
:100010003D1100083F1100084111000800000000D8
:100020000000000000000000000000004311000874
:1000300045110008000000004711000849110008A0
:100040006132000861320008613200086132000844
:100050006132000861320008613200086132000834
:100060006132000861320008613200085111000855
:100070006132000861110008613200086132000835
:100080006132000861320008613200086132000804
:1000900061320008613200086132000861320008F4
:1000A00061320008613200086132000861320008E4
:1000B00061320008613200086132000861320008D4
:1000C00061320008613200086132000861320008C4
:1000D00061320008613200086132000861320008B4
:1000E00061320008613200086132000861320008A4
:1000F0006132000861320008613200086132000894
:100100006132000861320008613200086132000883
:100110006132000861320008613200086132000873
:100120006132000861320008613200086132000863
:100130006132000861320008613200086132000853
:100140006132000861320008613200086132000843
:100150006132000861320008613200086132000833
:100160006132000861320008613200086132000823
:1001700061320008613200086132000800000000AE
:08018000613200086132000841
:1001C00090F800F06DE9024520F007016FF0000C97
:1001D00010F0070491F820F040F049804FF000043F
:1001E0006FF00700D1E9002391F840F000F108001A
:1001F00082FA4CF2A4FA8CF283FA4CF3A2FA8CF352
:100200004BBBD1E9022382FA4CF200F10800A4FAB8
:100210008CF283FA4CF3A2FA8CF3E3B9D1E904230C
:1002200082FA4CF200F10800A4FA8CF283FA4CF343
:10023000A2FA8CF37BB9D1E9062301F1200182FAFD
:100240004CF200F10800A4FA8CF283FA4CF3A2FA03
:100250008CF3002BC6D0002A04BF04301A4612BA11
:10026000B2FA82F2FDE8024500EBD2007047D1E914
:10027000002304F00305C4F100004FEAC50514F0A3
:10028000040F91F840F00CFA05F562EA05021CBF74
:1002900063EA050362464FF00004A9E7000000008E
:1002A00001F0FF01102A2BDB10F0070F08D010F827
:1002B000013B013A8B422DD010F0070F42B3F6D12B
:1002C000F0B441EA012141EA014122F007047FF044
:1002D00000070023F0E80256083C85EA010586EA9B
:1002E000010685FA47F5A3FA87F586FA47F6A5FAD7
:1002F00087F68EB9EED1F0BC01F0FF0102F00702E3
:1003000032B110F8013B013A83EA010313B1F8D18D
:100310000020704701387047002D06BF354603386E
:10032000073815F0010F07D1013015F4807F02BFA7
:10033000013015F4C03F0130F0BC0138704700BFF8
:10034000844641EA000313F003036DD1403A41D3E0
:1003500051F8043B40F8043B51F8043B40F8043B9F
:1003600051F8043B40F8043B51F8043B40F8043B8F
:1003700051F8043B40F8043B51F8043B40F8043B7F
:1003800051F8043B40F8043B51F8043B40F8043B6F
:1003900051F8043B40F8043B51F8043B40F8043B5F
:1003A00051F8043B40F8043B51F8043B40F8043B4F
:1003B00051F8043B40F8043B51F8043B40F8043B3F
:1003C00051F8043B40F8043B51F8043B40F8043B2F
:1003D000403ABDD2303211D351F8043B40F8043BCF
:1003E00051F8043B40F8043B51F8043B40F8043B0F
:1003F00051F8043B40F8043B103AEDD20C3205D3DF
:1004000051F8043B40F8043B043AF9D2043208D0D6
:10041000D2071CBF11F8013B00F8013B01D30B8848
:1004200003806046704700BF082A13D38B078DD026
:1004300010F003038AD0C3F10403D21ADB071CBFF8
:1004400011F8013B00F8013B80D331F8023B20F862
:10045000023B7BE7043AD9D3013A11F8013B00F89B
:10046000013BF9D20B7803704B7843708B78837023
:100470006046704781F0004102E000BF83F0004316
:1004800030B54FEA41044FEA430594EA050F08BF2F
:1004900090EA020F1FBF54EA000C55EA020C7FEAF3
:1004A000645C7FEA655C00F0E2804FEA5454D4EB70
:1004B0005555B8BF6D420CDD2C4480EA020281EA3A
:1004C000030382EA000083EA010180EA020281EA72
:1004D0000303362D88BF30BD11F0004F4FEA0131C4
:1004E0004FF4801C4CEA113102D0404261EB4101D3
:1004F00013F0004F4FEA03334CEA133302D0524259
:1005000063EB430394EA050F00F0A780A4F1010414
:10051000D5F1200E0DDB02FA0EFC22FA05F280184E
:1005200041F1000103FA0EF2801843FA05F3594134
:100530000EE0A5F120050EF1200E012A03FA0EFCB3
:1005400028BF4CF0020C43FA05F3C01851EBE371DD
:1005500001F0004507D54FF0000EDCF1000C7EEBFA
:1005600000006EEB0101B1F5801F1BD3B1F5001F38
:100570000CD349085FEA30004FEA3C0C04F1010457
:100580004FEA445212F5800F80F09A80BCF1004F80
:1005900008BF5FEA500C50F1000041EB045141EA02
:1005A000050130BD5FEA4C0C404141EB0101013CCB
:1005B00028BFB1F5801FE9D291F0000F04BF0146BA
:1005C0000020B1FA81F308BF2033A3F10B03B3F18C
:1005D00020020CDA0C3208DD02F1140CC2F10C021C
:1005E00001FA0CF021FA02F10CE002F11402D8BF7A
:1005F000C2F1200C01FA02F120FA0CFCDCBF41EA46
:100600000C019040E41AA2BF01EB0451294330BD14
:100610006FEA04041F3C1CDA0C340EDC04F11404F1
:10062000C4F1200220FA04F001FA02F340EA0300C8
:1006300021FA04F345EA030130BDC4F10C04C4F10E
:10064000200220FA02F001FA04F340EA03002946EE
:1006500030BD21FA04F0294630BD94F0000F83F438
:10066000801306BF81F480110134013D4EE77FEA1B
:10067000645C18BF7FEA655C29D094EA050F08BF67
:1006800090EA020F05D054EA000C04BF1946104648
:1006900030BD91EA030F1EBF0021002030BD5FEA8C
:1006A000545C05D14000494128BF41F0004130BDB4
:1006B00014F580043CBF01F5801130BD01F0004508
:1006C00045F0FE4141F470014FF0000030BD7FEA7B
:1006D000645C1ABF194610467FEA655C1CBF0B4676
:1006E000024650EA013406BF52EA033591EA030F8D
:1006F00041F4002130BD00BF90F0000F04BF002185
:10070000704730B54FF4806404F132044FF00005B7
:100710004FF0000150E700BF90F0000F04BF002130
:10072000704730B54FF4806404F1320410F0004596
:1007300048BF40424FF000013EE700BF42004FEA91
:10074000E2014FEA31014FEA02701FBF12F07F430E
:1007500093F07F4F81F06051704732F07F4208BFC5
:10076000704793F07F4F04BF41F40021704730B5CC
:100770004FF4607401F0004521F000411CE700BF18
:1007800050EA010208BF704730B54FF000050AE09B
:1007900050EA010208BF704730B511F0004502D59C
:1007A000404261EB41014FF4806404F132045FEA9E
:1007B000915C3FF4D8AE4FF003025FEADC0C18BF47
:1007C00003325FEADC0C18BF033202EBDC02C2F139
:1007D000200300FA03FC20FA02F001FA03FE40EACB
:1007E0000E0021FA02F11444BDE600BF70B54FF0CF
:1007F000FF0C4CF4E06C1CEA11541DBF1CEA1355AD
:1008000094EA0C0F95EA0C0F00F0DEF82C4481EA14
:10081000030621EA4C5123EA4C5350EA013518BF34
:1008200052EA033541F4801143F4801338D0A0FB21
:1008300002CE4FF00005E1FB02E506F00042E0FBCE
:1008400003E54FF00006E1FB03569CF0000F18BFD4
:100850004EF0010EA4F1FF04B6F5007F64F540747C
:1008600004D25FEA4E0E6D4146EB060642EAC6210F
:1008700041EA55514FEAC52040EA5E504FEACE2E7C
:10088000B4F1FD0C88BFBCF5E06F1ED8BEF1004F7F
:1008900008BF5FEA500E50F1000041EB045170BDFB
:1008A00006F0004646EA010140EA020081EA03013F
:1008B000B4EB5C04C2BFD4EB0C0541EA045170BD3B
:1008C00041F480114FF0000E013C00F3AB8014F1B5
:1008D000360FDEBF002001F0004170BDC4F10004FE
:1008E000203C35DA0C341BDC04F11404C4F120057F
:1008F00000FA05F320FA04F001FA05F240EA0200DA
:1009000001F0004221F0004110EBD37021FA04F60F
:1009100042EB06015EEA430E08BF20EAD37070BDC9
:10092000C4F10C04C4F1200500FA04F320FA05F028
:1009300001FA04F240EA020001F0004110EBD3702A
:1009400041F100015EEA430E08BF20EAD37070BD9A
:10095000C4F1200500FA05F24EEA020E20FA04F373
:1009600001FA05F243EA020321FA04F001F0004122
:1009700021FA04F220EA020000EBD3705EEA430E93
:1009800008BF20EAD37070BD94F0000F0FD101F0C2
:100990000046400041EB010111F4801F08BF013CFB
:1009A000F7D041EA060195F0000F18BF704703F039
:1009B0000046520043EB030313F4801F08BF013DC0
:1009C000F7D043EA0603704794EA0C0F0CEA13557C
:1009D00018BF95EA0C0F0CD050EA410618BF52EA36
:1009E0004306D1D181EA030101F000414FF000003C
:1009F00070BD50EA410606BF1046194652EA43064A
:100A000019D094EA0C0F02D150EA013613D195EABD
:100A10000C0F05D152EA03361CBF104619460AD105
:100A200081EA030101F0004141F0FE4141F470010F
:100A30004FF0000070BD41F0FE4141F4780170BDFF
:100A400070B54FF0FF0C4CF4E06C1CEA11541DBF64
:100A50001CEA135594EA0C0F95EA0C0F00F0A7F866
:100A6000A4EB050481EA030E52EA03354FEA013193
:100A700000F088804FEA03334FF0805545EA1313A6
:100A800043EA12634FEA022245EA111545EA10656E
:100A90004FEA00260EF000419D4208BF964244F105
:100AA000FD0404F5407402D25B084FEA3202B61A24
:100AB00065EB03055B084FEA32024FF480104FF4F8
:100AC000002CB6EB020E75EB030E22BFB61A75466C
:100AD00040EA0C005B084FEA3202B6EB020E75EBFF
:100AE000030E22BFB61A754640EA5C005B084FEA67
:100AF0003202B6EB020E75EB030E22BFB61A754634
:100B000040EA9C005B084FEA3202B6EB020E75EB3E
:100B1000030E22BFB61A754640EADC0055EA060EFF
:100B200018D04FEA051545EA16754FEA06164FEA42
:100B3000C30343EA52734FEAC2025FEA1C1CC0D1EE
:100B400011F4801F0BD141EA00014FF000004FF07B
:100B5000004CB6E711F4801F04BF01430020B4F13C
:100B6000FD0C88BFBCF5E06F3FF6AFAEB5EB030CF4
:100B700004BFB6EB020C5FEA500C50F1000041EBF1
:100B8000045170BD0EF0004E4EEA113114EB5C04BE
:100B9000C2BFD4EB0C0541EA045170BD41F4801191
:100BA0004FF0000E013C90E645EA060E8DE60CEA99
:100BB000135594EA0C0F08BF95EA0C0F3FF43BAFB6
:100BC00094EA0C0F0AD150EA01347FF434AF95EA6D
:100BD0000C0F7FF425AF104619462CE795EA0C0F51
:100BE00006D152EA03353FF4FDAE1046194622E71E
:100BF00050EA410618BF52EA43067FF4C5AE50EAF8
:100C000041047FF40DAF52EA43057FF4EBAE12E7E7
:100C10004FF0FF3C06E000BF4FF0010C02E000BFC8
:100C20004FF0010C4DF804CD4FEA410C7FEA6C5CAB
:100C30004FEA430C18BF7FEA6C5C1BD001B050EA4E
:100C4000410C0CBF52EA430C91EA030F02BF90EA39
:100C5000020F0020704710F1000F91EA030F58BFF8
:100C6000994208BF90422CBFD8176FEAE37040F05A
:100C7000010070474FEA410C7FEA6C5C02D150EAF8
:100C8000013C07D14FEA430C7FEA6C5CD6D152EAB3
:100C9000033CD3D05DF8040B704700BF8446104678
:100CA00062468C461946634600E000BF01B5FFF777
:100CB000B7FF002848BF10F1000F01BD4DF808ED47
:100CC000FFF7F4FF0CBF012000205DF808FB00BF18
:100CD0004DF808EDFFF7EAFF34BF012000205DF872
:100CE00008FB00BF4DF808EDFFF7E0FF94BF0120BF
:100CF00000205DF808FB00BF4DF808EDFFF7CEFFC0
:100D000094BF012000205DF808FB00BF4DF808EDFE
:100D1000FFF7C4FF34BF012000205DF808FB00BFCF
:100D20004FEA410C7FEA6C5C02D150EA013C0AD1E7
:100D30004FEA430C7FEA6C5C02D152EA033C02D1D9
:100D40004FF0000070474FF0010070474FEA41023A
:100D500012F5001215D211D56FF47873B3EB62520D
:100D600012D94FEAC12343F0004343EA505311F034
:100D7000004F23FA02F018BF404270474FF00000C6
:100D8000704750EA013005D111F0004008BF6FF004
:100D9000004070474FF00000704700BF53B94AB998
:100DA000002908BF00281CBF4FF0FF314FF0FF3073
:100DB00000F00CB8ADF1080C6DE904CE08F08CFB26
:100DC000DDF804E0DDE9022304B07047704700BF9E
:100DD0000348044B834202D0034B03B118477047CA
:100DE000B4090020B4090020000000000548064BAB
:100DF0001B1AD90F01EBA301491002D0034B03B119
:100E000018477047B4090020B40900200000000012
:100E100010B5064C237843B9FFF7DAFF044B13B142
:100E20000448AFF300800123237010BDB8090020EF
:100E300000000000A097000808B5054B1BB105494C
:100E40000548AFF30080BDE80840FFF7CFBF00BF03
:100E500000000000BC090020A097000872B6FEE761
:100E600000B595B03022002108A802F01FFA002337
:100E70000393049305930693079301931F4A116C00
:100E800041F080511164126C02F080520192019A7B
:100E900002931B4B1A6842F480421A601B6803F4E9
:100EA00080430293029B012308934FF480330993FC
:100EB00002230E934FF480030F9310231093C0234B
:100EC0001193082312930423139308A800F0D0FC75
:100ED00078B90F2303930223049300230593069309
:100EE0000793012103A800F013FF20B915B05DF8A6
:100EF00004FBFFF7B3FFFFF7B1FF00BF003802406C
:100F000000700040000000002DE9F043A1B001F0A6
:100F10002BFBFFF7A5FF00F0A3F801F05BFB01F04E
:100F20007BFB01F049FD01F0ABFB01F0DBFB01F0C5
:100F30009FFD01F0B7FD01F007FC01F0CDFD3C4C39
:100F40003C4B02933C4D0195022600960123002262
:100F500021463A4802F0A0F8394B02930195082740
:100F6000009704231A462146364802F095F8364B7E
:100F7000029301952025009510233A4621463348D7
:100F800002F08AF8324B0293324B01930096012310
:100F90000C222146304802F07FF801F00BFB04469A
:100FA0002A46002118A802F081F92A46002110A83B
:100FB00002F07CF900220023CDE90A231AA1D1E92D
:100FC0000001CDE90C01CDE90E23CDE90423CDE9E3
:100FD0000623CDE9082301F0EDFA031B642BFAD9AF
:100FE0001A4D284602F0ECF8FFF796FB06460F462E
:100FF000CDE918674FF000084FF00009CDE90089EE
:1010000042464B46154801F063FE01F0D3FA044610
:1010100032463B4640464946FFF730FA41EC100B5A
:10102000284602F0A8F8D6E79A9999999999B93F74
:101030003C0B00205C0C002000080240D809002076
:10104000840B0020880A0020CC0B0020300A0020EE
:10105000140C002000040240E00A0020B8970008A9
:10106000F0B58DB000240794089409940A940B9469
:1010700001942E4B1A6B42F080021A631A6B02F035
:1010800080020192019A02941A6B42F004021A63E0
:101090001A6B02F004020292029A03941A6B42F055
:1010A00001021A631A6B02F001020392039A04947C
:1010B0001A6B42F002021A631A6B02F002020492E7
:1010C000049A05941A6B42F010021A631A6B02F02C
:1010D00010020592059A06941A6B42F008021A63F0
:1010E0001B6B03F008030693069B114F22463F211A
:1010F000384600F0D9FF0F4D22460321284600F064
:10110000D3FF3F2307930126089609940A9407A961
:10111000384600F0D3FE03230793089609940A94F7
:1011200007A9284600F0CAFE0DB0F0BD0038024005
:101130000008024000040240FEE7FEE7FEE7FEE78B
:10114000FEE770477047704708B501F027FA08BD01
:1011500008B5024801F088F808BD00BF040D002062
:1011600008B5024801F080F808BD00BFA40C0020BB
:1011700082B0002100910B4B5A6C42F480425A64B9
:101180005A6C02F480420092009A01911A6C42F06B
:1011900080521A641B6C03F080530193019B02B0D0
:1011A000704700BF0038024030B4036A23F00103E7
:1011B0000362036A4268846924F0730C0C6844EA91
:1011C0000C0423F0020C8B6843EA0C03114DA84277
:1011D00003D005F58065A84205D123F00803CD684A
:1011E0002B4323F004030B4DA84203D005F5806583
:1011F000A84207D122F440724D6945EA020C8A697F
:1012000042EA0C02426084614A684263036230BC75
:10121000704700BF0000014030B4036A23F48073BC
:101220000362036A4268C46924F0730C0C6844EAE0
:101230000C0523F400738C6843EA0423114CA0428C
:1012400003D004F58064A04206D123F40063CC6887
:1012500043EA042323F480630A4CA04203D004F53C
:101260008064A04207D122F440524C6942EA041241
:101270008C6942EA04124260C5614A68C263036233
:1012800030BC70470000014030B4036A23F480533F
:101290000362036A4468C26922F4E6420D6842EAC6
:1012A000052223F400538D6843EA0533094DA84213
:1012B00003D005F58065A84204D124F480444D692B
:1012C00044EA85144460C2614A680264036230BC27
:1012D000704700BF000001400368304A904212D0BE
:1012E000B0F1804F0FD0A2F57C4290420BD002F5B6
:1012F0008062904207D002F58062904203D002F5EE
:101300007842904203D123F070034A681343234A82
:1013100090422AD0B0F1804F27D0A2F57C42904273
:1013200023D002F5806290421FD002F58062904285
:101330001BD002F57842904217D002F570529042CD
:1013400013D002F5806290420FD002F58062904285
:101350000BD0A2F59832904207D002F580629042FD
:1013600003D002F58062904203D123F44073CA682F
:10137000134323F080034A69134303608B68C362FD
:101380000B688362054B984203D003F58063984253
:1013900001D10B69036301234361704700000140E1
:1013A00040B310B5044690F83D30F3B1022384F801
:1013B0003D30214651F8040BFFF78EFF012384F8DE
:1013C000463084F83E3084F83F3084F8403084F86A
:1013D000413084F8423084F8433084F8443084F853
:1013E000453084F83D30002010BD80F83C3001F0DD
:1013F0008BFADBE701207047002853D0F8B50D4683
:10140000044690F83D30002B47D0022384F83D304D
:101410002268936823F4804323F0070393602146F6
:1014200051F8040BFFF758FF21688B688A690E6A30
:101430002868184322F4407222F00302AB68AF69B7
:1014400043EA0723134323F47C4323F0FC03EA68B5
:10145000EF6942EA07221A432B6A1B032F6943EA0A
:101460000713134326F0AA066A686D6942EA05125B
:101470003243886021688B6123681A62012384F8F3
:10148000463084F83E3084F83F3084F8423084F8A7
:10149000433084F83D300020F8BD80F83C3001F046
:1014A00085F9B2E70120704730B4036A23F01003D6
:1014B0000362036A4468826922F4E6420D6842EAE4
:1014C000052223F020038D6843EA0513114DA8423D
:1014D00003D005F58065A84206D123F08003CD68CE
:1014E00043EA051323F040030A4DA84203D005F553
:1014F0008065A84207D124F440644D6944EA85041C
:101500008D6944EA8504446082614A6882630362AB
:1015100030BC70470000014038B590F83C30012BDA
:1015200066D004460D46012380F83C300C2A5AD878
:10153000DFE802F0075959591B595959305959597F
:1015400044000068FFF730FE2268936943F0080307
:1015500093612268936923F004039361226893697D
:1015600029690B43936100203EE00068FFF79CFF70
:101570002268936943F4006393612268936923F4BA
:101580008063936122689369296943EA0123936127
:10159000002029E00068FFF73FFE2268D36943F08E
:1015A0000803D3612268D36923F00403D36122685E
:1015B000D36929690B43D361002015E00068FFF768
:1015C00063FE2268D36943F40063D3612268D36960
:1015D00023F48063D3612268D369296943EA012334
:1015E000D361002000E00120002384F83C3038BDA6
:1015F0000220FCE701F01F014FF0010C0CFA01FC86
:10160000036A23EA0C030362036A8A4013430362FA
:101610007047000010B504460846002942D194F8EE
:101620003E30DBB2013B18BF0123002B6ED10028F6
:1016300051D1022384F83E30012201462068FFF791
:10164000D9FF2368334A934203D002F58062934264
:1016500003D15A6C42F400425A6423682D4A9342E3
:1016600049D0B3F1804F46D0A2F57C42934242D09C
:1016700002F5806293423ED002F5806293423AD0F6
:1016800002F57842934236D002F57052934232D03E
:10169000A2F5943293422ED01A6842F001021A60E9
:1016A000002032E0042908D008290DD094F84130F8
:1016B000DBB2013B18BF0123B7E794F83F30DBB240
:1016C000013B18BF0123B0E794F84030DBB2013B87
:1016D00018BF0123A9E7042805D0082807D0022352
:1016E00084F84130A8E7022384F83F30A4E70223BE
:1016F00084F84030A0E79A6802F00702062A07D073
:101700001A6842F001021A60002010BD0120FCE7B7
:101710000020FAE70000014038B5044690F83E008A
:10172000C0B294F83F3094F84220D2B294F843C04B
:101730000D46B1B9012849D1012A48D1022384F8C4
:101740003E3084F842307DB3042D39D0012200218F
:101750002068FFF74FFF012204212068FFF74AFFAE
:1017600027E0DBB25FFA8CFC042912D0012833D1C8
:10177000012B2CD1012A31D1BCF1010F30D1022330
:1017800084F83E3084F83F3084F8423084F84330A7
:10179000D9E7012B1CD1BCF1010F1BD1022384F826
:1017A0003F3084F84330CEE7012200212068FFF764
:1017B00021FF2268136843F001031360002006E054
:1017C000012204212068FFF715FFF2E7012038BD50
:1017D0000120FCE71846FAE70120F8E71846F6E78B
:1017E0001046F4E790F83C20012A3DD010B403469F
:1017F000012280F83C20022280F83D2002685068D7
:10180000946820F0700C086840EA0C0050601A6878
:10181000164882421AD0B2F1804F17D0A0F57C4012
:10182000824213D000F5806082420FD000F58060C4
:1018300082420BD000F57840824207D000F570500C
:10184000824203D0A0F59430824204D124F0800477
:10185000496821439160012283F83D20002083F8EC
:101860003C005DF8044B70470220704700000140C7
:10187000002800F0E08170B582B00446036813F0E0
:10188000010F3BD09F4B9B6803F00C03042B2CD023
:101890009C4B9B6803F00C03082B21D06368B3F5C5
:1018A000803F4FD0B3F5A02F52D0964B1A6822F448
:1018B00080321A601A6822F480221A606368002B52
:1018C00050D000F077FE05468E4B1B6813F4003FA6
:1018D00014D100F06FFE401B6428F5D90320B1E15C
:1018E000884B5B6813F4800FD8D0864B1B6813F4C9
:1018F000003F03D06368002B00F09F81236813F042
:10190000020F54D07F4B9B6813F00C0F3ED07D4BE1
:101910009B6803F00C03082B33D0E368002B68D0DE
:10192000794B01221A6000F045FE0546754B1B6895
:1019300013F0020F54D100F03DFE401B0228F5D9F0
:1019400003207FE16F4A136843F480331360B5E7E7
:101950006C4B1A6842F480221A601A6842F4803292
:101960001A60ABE700F026FE0546664B1B6813F4D1
:10197000003FC3D000F01EFE401B6428F5D90320B1
:1019800060E1604B5B6813F4800FC6D15D4B1B6850
:1019900013F0020F03D0E368012B40F05081594A45
:1019A000136823F0F803216943EAC1031360236835
:1019B00013F0080F42D063696BB3534B0122C3F895
:1019C000802E00F0F7FD05464E4B5B6F13F0020FC3
:1019D00034D100F0EFFD401B0228F5D9032031E19E
:1019E000484A136823F0F803216943EAC1031360EE
:1019F000DDE7454B00221A6000F0DCFD0546414B57
:101A00001B6813F0020FD2D000F0D4FD401B022857
:101A1000F5D9032016E13C4B0022C3F8802E00F0DC
:101A2000C9FD0546374B5B6F13F0020F06D000F07F
:101A3000C1FD401B0228F5D9032003E1236813F000
:101A4000040F77D02F4B1B6C13F0805F33D1002332
:101A500001932C4B1A6C42F080521A641B6C03F0F9
:101A600080530193019B0125284B1B6813F4807F51
:101A700023D0A368012B34D0052B38D0214B1A6F0B
:101A800022F001021A671A6F22F004021A67A36893
:101A9000002B3DD000F08EFD06461A4B1B6F13F055
:101AA000020F46D100F086FD801B41F28833984238
:101AB000F3D90320C6E00025D6E7144A136843F49F
:101AC0008073136000F076FD0646104B1B6813F41C
:101AD000807FCED100F06EFD801B0228F5D9032057
:101AE000B0E0084A136F43F001031367CFE7054BDB
:101AF0001A6F42F004021A671A6F42F001021A6765
:101B0000C5E700BF003802400000474200700040B7
:101B100000F050FD0646524B1B6F13F0020F08D029
:101B200000F048FD801B41F288339842F3D903202E
:101B300088E0EDB9A369002B00F08380484A9268E1
:101B400002F00C02082A51D0022B17D0454B00227C
:101B50001A6600F02FFD0446414B1B6813F0007F0E
:101B600042D000F027FD001B0228F5D9032069E0D0
:101B70003B4A136C23F080531364DBE7394B00229C
:101B80001A6600F017FD0546354B1B6813F0007F01
:101B900006D000F00FFD401B0228F5D9032051E0CC
:101BA000E369226A1343626A43EA8213A26A520813
:101BB000013A43EA0243E26A43EA0263284A536075
:101BC000284B01221A6600F0F5FC0446244B1B68E2
:101BD00013F0007F06D100F0EDFC001B0228F5D9C0
:101BE00003202FE000202DE000202BE0012B2BD044
:101BF0001B4B5B6803F48001E269914226D103F03C
:101C00003F02216A8A4223D1616A47F6C0721A40B4
:101C1000B2EB811F1ED103F44031A26A5208013A8F
:101C2000B1EB024F18D103F07063E26AB3EB026FBD
:101C300014D1002006E001207047012002E00120BD
:101C400000E0002002B070BD0120FBE70120F9E7B1
:101C50000120F7E70120F5E70120F3E70120F1E794
:101C6000003802400000474208B5264B9B6803F04D
:101C70000C03042B41D0082B41D1224B5A6802F0AF
:101C80003F025B6813F4800F12D01E4B5968C1F3FA
:101C900088111D480023A1FB0001FFF77FF8194BB5
:101CA0005B68C3F3014301335B00B0FBF3F027E053
:101CB000144B5868C0F388104FEA401CBCEB000C72
:101CC0006EEB0E0E4FEA8E1343EA9C634FEA8C11C3
:101CD000B1EB0C0163EB0E03DB0043EA5173C90067
:101CE00011EB000C43F10003990200234FEA8C2012
:101CF00041EA9C51FFF752F8D1E7034800E003485E
:101D000008BD00BF0038024040787D010024F40087
:101D1000002800F09B8070B50D4604464F4B1B68B1
:101D200003F007038B4208D2CBB24C4A13701368FE
:101D300003F007038B4240F08B80236813F0020FFF
:101D400017D013F0040F04D0454A936843F4E053CE
:101D50009360236813F0080F04D0414A936843F45A
:101D6000604393603E4A936823F0F003A1680B43FD
:101D70009360236813F0010F32D06368012B21D0E8
:101D80009A1E012A25D9364A126812F0020F61D034
:101D900033498A6822F0030213438B6000F00AFC87
:101DA00006462F4B9B6803F00C036268B3EB820F6F
:101DB00016D000F0FFFB801B41F288339842F0D927
:101DC000032042E0264A126812F4003FE0D10120CD
:101DD0003BE0234A126812F0007FD9D1012034E0A1
:101DE0001E4B1B6803F00703AB4207D9EAB21B4B3B
:101DF0001A701B6803F00703AB422DD1236813F060
:101E0000040F06D0164A936823F4E053E1680B43AD
:101E10009360236813F0080F07D0114A936823F4E6
:101E20006043216943EAC1039360FFF71DFF0C4B38
:101E30009B68C3F303130B4AD35CD8400A4B18606A
:101E40000A4B186800F06AFB002070BD0120704743
:101E50000120FAE70120F8E70120F6E7003C024004
:101E600000380240C8970008080000200400002045
:101E7000014B1868704700BF0800002008B5FFF745
:101E8000F7FF044B9B68C3F38223034AD35CD8401B
:101E900008BD00BF00380240D897000808B5FFF71A
:101EA000E7FF044B9B68C3F34233034AD35CD8403B
:101EB00008BD00BF00380240D897000800230F2B50
:101EC00000F2E98070B582B065E085684FEA430EA4
:101ED000032404FA0EF425EA0405CC6804FA0EF48F
:101EE0002C438460446824EA02044A68C2F3001266
:101EF0009A40224342605CE0DC08083450F8242019
:101F000003F00705AD004FF00F0E0EFA05FE22EAB2
:101F10000E0E0A69AA4042EA0E0240F824205CE054
:101F2000072200E0002202FA0EF22A4302345A4D40
:101F300045F82420594A94686FEA0C0224EA0C05FB
:101F40004E6816F4801F01D04CEA0405534CA5607E
:101F5000E46802EA04054E6816F4001F01D04CEA5A
:101F600004054E4CE560646802EA04054E6816F408
:101F7000003F01D04CEA0405484C656024682240CB
:101F80004D6815F4803F01D04CEA0402434C2260B6
:101F900001330F2B7DD801229A400C6804EA020C11
:101FA00032EA0404F4D14C6804F00304013C012C2F
:101FB0008BD94A6802F00302032A09D0C4685D0085
:101FC0000322AA4024EA02048A68AA402243C2608B
:101FD0004A6802F00302022A8ED004684FEA430ED8
:101FE000032202FA0EF224EA02044A6802F0030213
:101FF00002FA0EF2224302604A6812F4403FC7D050
:1020000000220192264A546C44F480445464526C79
:1020100002F480420192019A9C08A51C1E4A52F8C3
:10202000255003F0030E4FEA8E0E0F2202FA0EF235
:1020300025EA02051B4A90423FF474AF02F5806224
:1020400090421AD002F58062904218D002F5806268
:10205000904216D002F58062904214D002F5806260
:10206000904212D002F58062904210D002F5806258
:1020700090423FF455AF082255E7012253E7022270
:1020800051E703224FE704224DE705224BE70622E2
:1020900049E702B070BD704700380140003C014084
:1020A00000380240000002400AB181617047090413
:1020B00081617047436901EA030221EA030141EAB1
:1020C000024181617047000010B40368D9B2103931
:1020D0000C4AA2FB014212090B4CA25CC2655F29AB
:1020E00009D923F47F7323F0030304338365806DE0
:1020F0005DF8044B704723F47F7323F0030383657B
:10210000F5E700BFABAAAAAAC0970008836A826954
:1021100092B9012B0AD0022B02D00BB100207047DC
:10212000C36A13F0807F28D100207047C36AB3F1DF
:10213000C07F24D000207047B2F5005F09D0022B89
:1021400025D9032B25D1C36A13F0807F23D100202A
:102150007047032B03D8DFE803F01404140A0020AF
:102160007047C36A13F0807F0DD100207047C36AA7
:10217000B3F1C07F09D000207047012070470120D3
:1021800070470120704701207047012070470120EF
:1021900070470020704701207047000070B504466A
:1021A00000F008FA002C5BD00546022384F8353095
:1021B000002384F834302268136823F0010313608D
:1021C00023681A6812F0010F0AD000F0F3F9431BDC
:1021D000052BF5D920236365032084F8350070BDF5
:1021E0001A68204911406268A0680243E06802430F
:1021F0002069024360690243A0690243E069024327
:10220000206A02430A43616A04291ED01A602668C4
:10221000756925F00705636A1D43042B07D1A36A7E
:102220001D43E36A1BB12046FFF770FF90B975614B
:102230002046FFF749FFE26D3F2393408360002073
:102240006065012384F83530C9E7E16A206B0143FA
:102250000A43DBE740236365012084F83500BEE7CD
:102260000120BCE73F8010F0F0B583B004460023A6
:102270000193724B1D68724BA3FB0535AD0A876D48
:102280003E68C26D08239340334210D003681A6839
:1022900012F0040F0BD01A6822F004021A60C26D0B
:1022A00008239340BB60436D43F001034365E26D37
:1022B00001239340334209D02268526912F0800F03
:1022C00004D0BB60636D43F002036365E26D0423D9
:1022D0009340334209D02268126812F0020F04D0F2
:1022E000BB60636D43F004036365E26D10239340AC
:1022F000334224D02268126812F0080F1FD0BB604E
:1023000023681A6812F4802F0DD01B6813F4002F75
:1023100004D1236C9BB12046984710E0A36C73B1A5
:10232000204698470BE01A6812F4807F03D11A68A0
:1023300022F008021A60236C0BB120469847E26D28
:1023400020239340334255D02268126812F0100FB8
:1023500050D0BB6094F83530DBB2052B0ED023682B
:102360001A6812F4802F33D01B6813F4002F2AD17F
:10237000636C002B3ED0204698473BE022681368F0
:1023800023F0160313602268536923F0800353611E
:10239000236CA3B12268136823F008031360E26D75
:1023A0003F239340BB60012384F83530002384F839
:1023B0003430236D002B3FD0204698473CE0A36C7F
:1023C000002BE7D1EBE7E36BA3B12046984711E080
:1023D0001A6812F4807F09D11A6822F010021A607C
:1023E000012384F83530002384F83430E36B0BB1DB
:1023F00020469847636DFBB1636D13F0010F17D052
:10240000052384F835302268136823F00103136034
:10241000019B01330193AB4204D823681B6813F07E
:10242000010FF5D1012384F83530002384F83430CE
:10243000E36C0BB12046984703B0F0BD08000020C4
:10244000B5814E1B074AD36823F4E0631B041B0CC1
:10245000000200F4E060034343F0BF6343F4003341
:10246000D360704700ED00E000B5194BDB68C3F3A3
:102470000223C3F1070CBCF1040F28BF4FF0040C7A
:1024800003F1040EBEF1060F18D9033B4FF0FF3ED7
:102490000EFA0CFC21EA0C0199400EFA03FE22EA26
:1024A0000E020A4300280BDB1201D2B200F1604099
:1024B00000F5614080F800235DF804FB0023E5E7A8
:1024C00000F00F001201D2B2024B1A54F4E700BF21
:1024D00000ED00E014ED00E0002807DB00F01F0233
:1024E000400901239340024A42F82030704700BF60
:1024F00000E100E00138B0F1807F0BD24FF0E02323
:102500005861054AF02182F82310002098610722C3
:102510001A6170470120704700ED00E010B50446D5
:102520000E4B1A784FF47A73B3FBF2F30C4A10682F
:10253000B0FBF3F0FFF7DEFF68B90F2C01D90120E3
:102540000AE0002221464FF0FF30FFF78DFF054BD8
:102550001C60002000E0012010BD00BF0000002032
:10256000080000200400002008B50B4B1A6842F454
:1025700000721A601A6842F480621A601A6842F4A3
:1025800080721A600320FFF75DFF0F20FFF7C6FF80
:10259000FEF7EEFD002008BD003C0240034A116832
:1025A000034B1B780B441360704700BF380B0020AF
:1025B00000000020014B1868704700BF380B002056
:1025C000034AD2F8883043F47003C2F88830704769
:1025D00000ED00E010B582B0002401940D4B1A6BA1
:1025E00042F400121A631B6B03F400130193019B66
:1025F000224621460B20FFF737FF0B20FFF76CFF29
:10260000224621460D20FFF72FFF0D20FFF764FF24
:1026100002B010BD0038024000B58DB02422002168
:1026200003A800F043FE0023019302931248134ACB
:102630000260436083604FF6FF72C26003614361D2
:1026400083610323039301230593099303A9FEF7F1
:10265000D3FE50B900230193029301A90648FFF766
:10266000C1F828B90DB05DF804FBFEF7F7FBF1E700
:10267000FEF7F4FBF6E700BF3C0B00200000014032
:1026800000B58DB02422002103A800F00FFE002326
:10269000019302931148124A0260436083604FF62F
:1026A000FF72C260036183610323039301230593D7
:1026B000099303A9FEF7A0FE50B9002301930293EA
:1026C00001A90648FFF78EF828B90DB05DF804FBA4
:1026D000FEF7C4FBF1E7FEF7C1FBF6E7CC0B0020E9
:1026E0000008004000B58DB02422002103A800F0AE
:1026F000DDFD0023019302931148124A02604360FA
:1027000083604FF0FF32C260036183610323039350
:1027100001230593099303A9FEF76EFE50B9002328
:102720000193029301A90648FFF75CF828B90DB0A0
:102730005DF804FBFEF792FBF1E7FEF78FFBF6E78F
:10274000140C0020000C004000B58DB024220021A4
:1027500003A800F0ABFD0023019302931148124A35
:102760000260436083604FF6FF72C26003614361A1
:102770008361012303930593099303A9FEF73CFEAC
:1027800050B900230193029301A90648FFF72AF8E4
:1027900028B90DB05DF804FBFEF760FBF1E7FEF72A
:1027A0005DFBF6E75C0C00200004014000B58FB033
:1027B000002309930A930B930C930D930368494AE2
:1027C00093420BD0484A93422AD0484A934248D079
:1027D000474A934265D00FB05DF804FB0021019198
:1027E000444B5A6C42F001025A645A6C02F00102E6
:1027F0000192019A02911A6B42F010021A631B6B4C
:1028000003F010030293029B4FF420630993022309
:102810000A9301230D9309A93748FFF74FFBDAE725
:1028200000210391334B1A6C42F004021A641A6CB3
:1028300002F004020392039A04911A6B42F0080218
:102840001A631B6B03F008030493049B4FF440537B
:10285000099302230A930D9309A92848FFF72EFB39
:10286000B9E700210591234B1A6C42F008021A6463
:102870001A6C02F008020592059A06911A6B42F052
:1028800001021A631B6B03F001030693069B0323EB
:10289000099302230A930D9309A91948FFF70EFB28
:1028A00099E700210791134B5A6C42F002025A64D7
:1028B0005A6C02F002020792079A08911A6B42F0D2
:1028C00004021A631B6B03F004030893089BC023E4
:1028D000099302230A9303230D9309A90948FFF7DB
:1028E000EDFA78E70000014000080040000C0040CD
:1028F000000401400038024000100240000C024079
:1029000000000240000802400268094B9A4200D0D1
:10291000704782B000230193064B1A6C42F002020A
:102920001A641B6C03F002030193019B02B0704711
:10293000000400400038024030B589B00023039302
:1029400004930593069307930268184B9A4201D0AB
:1029500009B030BD0025019503F50D331A6B42F027
:1029600001021A631A6B02F001020192019A0295A8
:102970001A6B42F004021A631B6B03F00403029308
:10298000029BC023039302240494079403A90848DC
:10299000FFF794FA4FF4407303930494059506955A
:1029A000079403A90348FFF789FAD1E70004004020
:1029B000000002400008024000B58BB000230893DD
:1029C000099301930293039304930593069307934A
:1029D0002548264A0260436083604FF6FF72C2605A
:1029E00003618361FEF7DCFC58BB00230893099365
:1029F00008A91D48FEF7F6FE30BB602301930022B4
:102A000002920392059201A91748FEF785FDF0B9DD
:102A100004220DEB02011448FEF77EFDD0B9082216
:102A200001A91148FEF778FDB8B90C2201A90E489A
:102A3000FEF772FDA0B90C48FFF77EFF0BB05DF802
:102A400004FBFEF70BFAD0E7FEF708FAD5E7FEF72E
:102A500005FADDE7FEF702FAE1E7FEF7FFF9E4E742
:102A6000FEF7FCF9E7E700BF840B002000040040FC
:102A700008B50A480A4B03604FF4E1334360002372
:102A80008360C36003610C2242618361C36100F013
:102A900005FA00B908BDFEF7E1F9FBE7A80D002033
:102AA000004C004008B50A480A4B03604FF4E1337C
:102AB000436000238360C36003610C224261836131
:102AC000C36100F0EBF900B908BDFEF7C7F9FBE7F9
:102AD000EC0D00200050004008B50A480A4B036086
:102AE0004FF41653436000238360C36003610C22DC
:102AF00042618361C36100F0D1F900B908BDFEF7FE
:102B0000ADF9FBE7640D0020004400402DE9F041E1
:102B10008CB0044600230793089309930A930B9300
:102B20000368604A934209D05F4A934243D05F4AA8
:102B3000934200F094800CB0BDE8F0810025009530
:102B40005B4B1A6C42F400221A641A6C02F40022E5
:102B50000092009A01951A6B42F004021A631B6BF3
:102B600003F004030193019B4FF440630793022396
:102B7000089303230A9308230B9307A94D48FFF7F3
:102B80009DF94D484D4B03604FF0006343608560F5
:102B9000C5604FF48063036145618561C56105626D
:102BA0004562FFF7FBFA18B9434BA3639C63C2E786
:102BB000FEF754F9F8E7002502953D4B1A6C42F4F4
:102BC00080121A641A6C02F480120292029A03951F
:102BD0001A6B42F004021A631A6B02F004020392A9
:102BE000039A04951A6B42F008021A631B6B03F0F8
:102BF00008030493049B4FF4805307934FF002089B
:102C0000CDF8208003270A9708260B9607A92948A4
:102C1000FFF754F904230793CDF8208009950A970C
:102C20000B9607A92648FFF749F92648264B03606B
:102C30004FF0006343608560C5604FF480630361BB
:102C400045618561C56105624562FFF7A7FA18B95C
:102C50001C4BA3639C636EE7FEF700F9F8E70021C5
:102C60000591134B1A6C42F400321A641A6C02F488
:102C700000320592059A06911A6B42F001021A631E
:102C80001B6B03F001030693069B0C23079302239F
:102C9000089303230A9307230B9307A90B48FFF715
:102CA0000DF948E7004C004000500040004400404F
:102CB0000038024000080240A40C0020406002409E
:102CC000000C0240040D0020106002400000024091
:102CD0000FB400B5B5B036AA52F8041B339201A860
:102CE00000F036FB01A8FDF76BFA4FF0FF3382B21C
:102CF00001A9044800F001F935B05DF804EB04B017
:102D0000704700BFEC0D002010B50446026813693F
:102D100023F44053C1680B431361836802691A436B
:102D200043691A43C3691A430168CB6823F4164305
:102D300023F00C031343CB600268536923F4407300
:102D400081690B4353610368314A934206D002F50F
:102D50008062934202D0FFF791F801E0FFF79EF8FE
:102D6000E369B3F5004F29D00021031849411B182E
:102D700041F10001C90041EA5371DB001818636892
:102D80004FEA83024FEA937341F10001FEF706F820
:102D9000204AA2FB00314909642303FB11031B01F4
:102DA0003233A2FB03235B0903F0F00202EB0112B2
:102DB00003F00F03216813448B6010BD0023021839
:102DC00043EB0301121841F10001C90041EA5271BD
:102DD000D200101841F10001626892185B41FDF7C2
:102DE000DDFF0C4AA2FB00314909642303FB1103F8
:102DF000DB003233A2FB03235B095A0002F4F872B2
:102E000002EB011203F00703216813448B60D4E73F
:102E1000001001401F85EB512DE9F84305460F4690
:102E200016469946DDF820802B681C6837EA0404B2
:102E30000CBF01240024B4422DD1B8F1FF3FF3D0E0
:102E4000B8F1000F05D0FFF7B5FBA0EB0900404536
:102E5000EAD92A6802F10C0353E8003F23F4D07347
:102E60000C3242E800310029F3D12A6802F1140340
:102E700053E8003F23F00103143242E800310029F7
:102E8000F3D1202385F83D3085F83E30002385F8C6
:102E90003C30032000E00020BDE8F88358B310B5B3
:102EA000044690F83D300BB3242384F83D3022686B
:102EB000D36823F40053D3602046FFF725FF226830
:102EC000136923F4904313612268536923F02A03A2
:102ED00053612268D36843F40053D3600020206418
:102EE000202384F83D3084F83E3010BD80F83C301B
:102EF000FFF70CFED8E7012070472DE9F04182B0C2
:102F00001E4690F83D30DBB2202B54D104460D46CE
:102F10009046002953D0002A53D090F83C30012B22
:102F200051D0012380F83C3000230364212380F832
:102F30003D30FFF73FFB0746A4F82480A4F8268025
:102F4000A368B3F5805F05D04FF00008002384F834
:102F50003C3012E0236913B14FF00008F6E7A846B1
:102F60000025F3E738F8023B2268C3F308035360F7
:102F7000E28C92B2013A92B2E284E38C9BB273B1DA
:102F800000963B46002280212046FFF745FFE0B92E
:102F9000002DE7D015F8012B23685A60E8E700966A
:102FA0003B46002240212046FFF736FF78B9202318
:102FB00084F83D3000E0022002B0BDE8F08101203D
:102FC000FAE70120F8E70220F6E70320F4E7032000
:102FD000F2E72DE9D04F82B0044657EC106BD0E9F0
:102FE0000089D0E906AB52465B4610EE100A39461E
:102FF000FDF744FA02460B4640464946FDF7F6FB0C
:103000008046894632463B46D4E90201FDF7EEFB95
:1030100002460B4640464946FDF732FACDE900012B
:10302000D4E9048952465B4650465946FDF728FAD2
:1030300002460B4630463946FDF720FAD4E908230C
:10304000FDF71EFA02460B4640464946FDF7CEFB09
:1030500002460B46DDE90001FDF712FA804689467B
:10306000C4E908ABC4E90667A06AFDF755FB424610
:103070004B46FDF705FAFDF769FEA062E36A984248
:1030800000DDA362A26A236B9A4200DAA36202B057
:10309000BDE8D08F000000002DE9F0470D46144632
:1030A0001E46BDF82090099FDDF8288000222A4B9B
:1030B000C0E900239FED267B80ED027BC0E904235D
:1030C00000220023C0E90623C0E908234FF0000ACC
:1030D000C0F828A04FF47A71C162A1F5FA610163CA
:1030E000C4638563A0F84060A0F842904764C0E9DB
:1030F0001223C0F8508021462846FEF78BFA0122A1
:1031000031463846FEF7D0FF524649463846FEF76C
:10311000CBFF4CB92B684FF496725A633C21404662
:10312000FEF7FAFABDE8F087042C06D0082C09D087
:103130002B684FF496721A64F0E72B684FF496727E
:103140009A63EBE72B684FF49672DA63E6E700BF09
:1031500000000000000008400000F03F10B50446E9
:10316000B0F84010406CFEF7A5FFB4F84210606C58
:10317000FEF7A0FF10BD38B50446FFF72AFFA56A89
:10318000002D05DBE36B43B9A36B1B685D6338BDA2
:103190002046FFF7E3FF6D42F4E7042B05D0082B30
:1031A00007D0A36B1B681D64F1E7A36B1B689D63CD
:1031B000EDE7A36B1B68DD63E9E70000000000009A
:1031C00010B5036D1C68606AFDF796FA0CA3D3E98D
:1031D0000023FDF735FC0CA3D3E90023FDF730FCF9
:1031E00041EC100B236813F0100F06D0024610EECE
:1031F000901A01F1004343EC102B0023636210BDD1
:10320000B1E1E995B2506E409A9999999999B93F6F
:10321000DFF834D00D480E490E4A002302E0D4589E
:10322000C4500433C4188C42F9D30B4A0B4C00230E
:1032300001E013600432A242FBD3FFF7C1F900F0B2
:1032400011F8FDF761FE7047000002200000002029
:10325000B4090020D89B0008B80900206C0E00209B
:10326000FEE7000070B50D4E0D4D761BB61006D072
:10327000002455F8043B01349847A642F9D1094E81
:10328000094D761B06F08CFAB61006D0002455F8CE
:10329000043B01349847A642F9D170BDD09B000889
:1032A000D09B0008D49B0008D09B0008830730B552
:1032B00048D0541E002A3FD0CAB2034601E0013C68
:1032C0003AD303F8012B9D07F9D1032C2DD9CDB2A8
:1032D00045EA05250F2C45EA054536D9A4F110022B
:1032E00022F00F0C03F1200EE6444FEA121C03F10A
:1032F000100242E9045542E9025510327245F8D1F4
:103300000CF1010214F00C0F03EB021204F00F0C8D
:1033100013D0ACF1040323F003030433134442F845
:10332000045B9342FBD10CF003042CB1C9B21C44E2
:1033300003F8011B9C42FBD130BD64461346002CB0
:10334000F4D1F9E703461446BFE71A46A446E0E77E
:1033500070B50B4E9AB004466FF00045CDE90445B8
:10336000134600940A463068064C02956946039459
:1033700000F00AF8009B00221A701AB070BD00BF5E
:103380000C0000200802FFFF2DE9F04F2DED068B09
:10339000D3B00C460AEE101A90460893824602F00B
:1033A0009FFF036813931846FCF70AFF0822119049
:1033B000002122A8FFF77AFFA3891F0603D52369FE
:1033C000002B00F052879FED847B0023CDE927334B
:1033D000CDE91433CDE916338DED0E7B29AA0D937B
:1033E00026929146129304934446A0467C4BD3F810
:1033F000E45002F079FF034622A8009042461EA93D
:103400005046A847002800F0B080C0F2A6801E9A5F
:10341000252A034601D09844E8E7B8EB040706469E
:1034200040F0A78000234FF0FF328DF86F309B46AD
:10343000069308F1010898F8003003922B25202606
:1034400008F10108A3F120025A2A00F2CB80DFE83C
:1034500012F0F302C900C900EE02C900C900C90098
:103460006A00C900C90014029002C9001F02D402F8
:10347000C900CF025B005B005B005B005B005B0090
:103480005B005B005B00C900C900C900C900C9003E
:10349000C900C9004C01C900950129024C014C0129
:1034A0004C01C900C900C900C9002402C900C900F3
:1034B000A202C900C900C900BD01C900B502C90006
:1034C000C900EF06C900C900C900C900C900C90088
:1034D000C900C9004C01C9009501EE014C014C0125
:1034E0004C018302EE017F00C9009502C9006B0206
:1034F000EC063E027F00C900BD017C00C606C90083
:10350000C900CA06C9007C00A3F13002002118F8E6
:10351000013B01EB810102EB4101A3F13002092AD9
:10352000F5D906918EE7504602F0DAFE436816930D
:103530001846FCF745FE17900746504602F0D0FEAD
:1035400083681493002F40F0D08598F8003077E717
:1035500098F800304BF0200B72E70822002122A8D7
:10356000FFF7A4FE0123984440E7B8EB04070646A2
:1035700011D0289B3B442893279B0133072BC9E993
:10358000004727931CDC09F10809049B3B44049382
:10359000002E7FF447AF289B002B41F019821AEED2
:1035A000103AB3F90C3013F0400F049B18BF4FF0E2
:1035B000FF330493049853B0BDEC068BBDE8F08F45
:1035C0001AEE101A26AA504603F094FD0028E6D100
:1035D0000DF1A409D9E700BF0000000000000000C1
:1035E000380400200A93002BD5D000228DF8E43057
:1035F00001238DF86F2002930792059303920C929A
:1036000010920B9239AC1BF0020302D002990231E6
:1036100002911BF08401099105D1069902980F1AB5
:10362000002F00F38783289E82B10122C9F804206D
:10363000279A013201360DF16F01072A2896279249
:10364000C9F8001000F3BF8309F1080983B1279B73
:103650001CAA01330236C9F80020072B4FF00202E2
:1036600028962793C9F8042000F3C28309F10809BA
:10367000099B802B00F08682039B059A9F1A002FDE
:1036800000F3C0821BF4807F40F02282059BC9F8C2
:1036900004301E44279BC9F800400133072B2896AD
:1036A000279300F33B8309F108091BF0040F05D0B1
:1036B000069B029A9C1A002C00F3A783049B069A8F
:1036C00002998A42ACBF9B185B180493002E40F00D
:1036D000CD8200232793079B1BB10799504602F028
:1036E000F9FC0DF1A40944467FE60A93089B0733D1
:1036F00023F00703B3EC027B8DED0E7BDDE90E5664
:10370000089326F0004309EE903A09EE105AB44BA4
:1037100051EC190B4FF0FF32FDF702FB002840F08F
:103720000285AF4B51EC190B4FF0FF32FDF7DAFA7F
:10373000002840F0F8840022002328463146FDF797
:10374000C7FA002841F05C809DF86F20A54CA64B7D
:103750002BF0800B0A994729C8BF1C460023032180
:1037600007930291059103930C9310930B93002AF6
:103770003FF449AF029B0133029344E7432B0A9382
:1037800003D01BF0100F00F05785089E082200217F
:1037900024A839ACFFF78AFD24AB56F8042B214648
:1037A000504601F0E1FB03460133059001F023830D
:1037B000059B089623EAE373029300228DF86F209D
:1037C000079203920C9210920B921CE7089F0A93A7
:1037D00057F8044B00238DF86F30002C00F0528511
:1037E0000A9B532B00F0DE861BF010030B9340F076
:1037F000D986039B5D1C01F0E3800B991A46204695
:10380000FCF74EFD0790002801F03B83079B0897CB
:10381000191B05910B9B039321EAE1710C93109303
:10382000079373239DF86F2002910A939FE71BF083
:10383000200F0A93089B3CD0073323F007031A4656
:1038400011465B6851F8082B08911946002BC0F20D
:103850000784039B013300F0A78252EA01032BF097
:10386000800540F0A282039B002B40F0A382AB4670
:1038700000230393059352AC00E1089B53F8042BFB
:103880000692002A80F21484069A08935242069205
:1038900098F800304BF0040BD2E598F800304BF06C
:1038A000080BCDE54BF0100B1BF0200F0A93089B83
:1038B000C2D11BF0100F40F006841BF0400F00F047
:1038C000FE8333F9042B0893D1170B46BEE7089B00
:1038D00053F8042B089347F63003ADF87030782086
:1038E000424B12934BF00205002102230A90002064
:1038F000039C8DF86F00601C00F0A98052EA010063
:1039000025F0800B40F0A280002C40F0A186002B17
:10391000AED115F00103059300F0CF8330238DF86D
:1039200047310DF24714A9E01BF0200F40F0F0835F
:103930001BF0100F40F092861BF0400F40F097876D
:103940001BF4007F00F08A86089B049953F8042B2F
:1039500008931170444648E598F80030682B03BF7F
:1039600098F801304BF4007B08F101084BF0400B54
:1039700066E598F800308DF86F5061E598F80030F2
:103980006C2B03BF98F801304BF0200B08F10108B5
:103990004BF0100B54E50A934BF0100B1BF0200179
:1039A00000F05083089B073323F00703596853F84E
:1039B000082B08932BF48065002398E70A934BF0BB
:1039C000100515F0200100F02E83089B073323F02B
:1039D0000703596853F8082B0893012387E700BFB2
:1039E000FFFFEF7FE0970008E4970008F0970008DA
:1039F00098F800304BF0800B22E5414611F8013B6E
:103A00002A2B01F07782A3F13002092A884698BF59
:103A1000002101F28C8118F8013B01EB810102EBDE
:103A20004101A3F13002092AF5D903910AE598F87A
:103A300000304BF0010B03E59DF86F30002B7FF455
:103A400084AD98F800308DF86F60F9E45D46012B85
:103A500000F0AB81022B52AC1FD1129802F00F0381
:103A60001209C35C04F8013D42EA0172090952EAF5
:103A70000103F3D152AB1B1BAB4605930599039889
:103A80009DF86F2081424FF00003B8BF01460793B5
:103A900002910C9310930B9369E602F00703D2088E
:103AA00042EA4172C908303352EA0106204604F85E
:103AB000013DF2D1E907DDD5302BDBD030230238D0
:103AC00004F8013C52AB1B1AAB4605930446D5E7FC
:103AD0000A9B652B40F3DC80DDE90E010022002308
:103AE000FDF7ECF8002800F0C8810123C9F8043084
:103AF000279BBC4AC9F8002001330136072B2896C2
:103B0000279300F3418509F108091D9B0D9A934203
:103B100080F2C982119B139A1E44C9E90023279B96
:103B200028960133072B279300F3928309F10809A4
:103B30000D9B5C1E002C7FF7B8AD102C279BAA4D67
:103B400040F35E85324610271AEE106A05E009F14F
:103B50000809103C102C40F3528501331032072B1A
:103B6000C9E90057CDE92732F1DD26AA3146504692
:103B700003F0C0FA002840F08280DDE927320DF121
:103B8000A409E6E7069B029A9F1A002F7FF774ADFF
:103B9000102F279B944D22DD32461AEE106A04E066
:103BA000103F102F09F1080918DD013310321021E0
:103BB000072BCDE92732C9F80050C9F80410EFDD12
:103BC00026AA314650460DF1A40903F093FA0028C5
:103BD00055D1103F102FDDE92732E6DC16460133C0
:103BE0003E44072BCDE92736C9F80050C9F80470C8
:103BF00000F32085039B059A9F1A002F09F10809FD
:103C00007FF740AD102F279B774D21DD32461AEE0E
:103C1000106A04E0103F102F09F1080917DD013385
:103C200010321021072BCDE92732C9F80050C9F80E
:103C30000410EFDD26AA3146504603F05BFAF0B9D6
:103C4000103F102FDDE927320DF1A409E7DC1646FD
:103C500001333E44072BCDE92736C9F80050C9F897
:103C6000047000F3D28109F108090BE51AEE101A6D
:103C700026AA504603F03EFA00283FF42AAD079BDF
:103C8000002B3FF48CAC0799504602F023FA86E4EF
:103C90000D9B012B40F36F81279FC9F80040012342
:103CA0001F440136072FC9F804302896279700F3E0
:103CB000DE8109F10809119B139A01371E44072F71
:103CC000C9E90023CDE9277600F3DF8109F108096E
:103CD000DDE90E0100220023FCF7F0FF002840F090
:103CE00069810D9B0137013B01341E44072FC9F840
:103CF00000402797C9F80430289600F34D8109F158
:103D00000809159BC9F8043001371E44072F20AB62
:103D1000CDE92776C9F800307FF7C5AC1AEE101A46
:103D200026AA504603F0E6F90028A8D1289E0DF1F6
:103D3000A409BAE4102FDDE927212C4D24DD1893C6
:103D4000199410261AEE104A0B4604E0103F102F6B
:103D500009F1080915DD01321033072AC9E90056B7
:103D6000CDE92723F2DD26AA214650460DF1A4090C
:103D700003F0C0F9002882D1103F102FDDE927237E
:103D8000E9DC1946DDE9183401327E18072ACDE94D
:103D90002726C9F80050C9F8047000F3A3839DF8E2
:103DA0006F2009F108093FE45D460A2A71F100031A
:103DB00080F03483303201238DF84721AB460593E0
:103DC0000DF247145AE61AEE101A26AA5046189316
:103DD00003F090F900287FF452AF289E189B0DF154
:103DE000A40933E4209800083498000824980008B7
:103DF0001AEE101A26AA504603F07CF900287FF428
:103E00003EAF289E0DF1A40932E4102C279BBE4D35
:103E10001FDD1AEE10BA102704E0103C102C09F137
:103E2000080916DD01331036072BC9E90057CDE923
:103E30002736F2DD26AA594650460DF1A40903F0B3
:103E400059F900287FF41BAF103C102CDDE9273610
:103E5000E8DC01332644072BC9E90054CDE92736B5
:103E60007FF72CAC1AEE101A26AA504603F042F93E
:103E700000287FF404AF289E20E41D99002940F318
:103E800043830B9D0D9B9D42A8BF1D46002D0BDD5E
:103E9000279B01332E44072BC9E900452896279319
:103EA00000F3FC8609F108090B9F002DA8BF7F1BBA
:103EB000002F00F3F8810B9B1BF4806F23440593C4
:103EC00040F018821D9B0D9A934203DB1BF0010FFB
:103ED00000F0BC84119A13991644C9E90012279A7C
:103EE00028960132072A279200F3E68609F108098D
:103EF0000D9AA518D41A059BED1AA542A8BF254610
:103F0000002D0DDDC9F80030279BC9F8045001339E
:103F10002E44072B2896279300F3F88609F1080909
:103F2000002DA8BF641B002C7FF7BFAB102C279B74
:103F3000764D40F36583324610271AEE106A05E08D
:103F400009F10809103C102C40F359830133103259
:103F5000072BC9E90057CDE92732F1DD26AA314602
:103F6000504603F0C7F800287FF489AEDDE9273218
:103F70000DF1A409E6E71BF0010F7FF48DAE279F3A
:103F8000C9F8004001231F440136072FC9F8043047
:103F9000289627977FF7B3AE1AEE101A26AA504636
:103FA00003F0A8F800287FF46AAEDDE927760DF16A
:103FB000A409A6E60D9B5C1E002C7FF7A2AE102C78
:103FC000524D40F35683CDF80C8010231AEE108A20
:103FD00005E009F10809103C102C40F34883013733
:103FE0001036072FC9E90053CDE92776F1DD26AA5F
:103FF0004146504603F07EF800287FF440AEDDE9EC
:1040000027760DF1A4091023E5E71AEE101A26AA67
:10401000504603F06FF800287FF431AE289E0DF172
:10402000A409FFF72FBB15F0100358D115F040027B
:1040300000F06E83089850F8042B0890194692B24D
:10404000012354E41BF0100344D11BF0400200F0A4
:104050006E83089850F8042B0890194692B2A9E490
:10406000524261EB41015D462D20012340E41AEEEE
:10407000101A26AA504603F03DF800287FF4FFAD41
:10408000DDE927760DF1A40915E61AEE101A26AA25
:10409000504603F02FF800287FF4F1ADDDE92776D4
:1040A0000DF1A40914E61BF0010F3FF4FEAA31E55F
:1040B000089398F80030FFF7C3B952ACDEE41BF464
:1040C000007F40F0CD8353F8042B0893D1170B46A3
:1040D000FFF7BCBB089B53F8042B08936AE4089BCA
:1040E00053F8042B0893012301E4149B002B3FF4A5
:1040F0002CAA149B1B78002B3FF427AA98F80030B9
:104100004BF4806BFFF79CB92498000834980008A2
:10411000089B049853F8041B0893C217C1E90002D6
:104120004446FFF762B9DDE90E0102460B46FCF793
:10413000F7FD002840F0B2860A9B612B00F06685EF
:10414000412B00F0C885039B01330A9B23F0200319
:10415000029300F06684472B04D1039B002B08BF19
:1041600001230393DDE90E014BF480720029CDF8A1
:1041700024B04FF000039346C0F2848541EC180B45
:10418000189307930A9B413B252B00F27983DFE8C4
:1041900013F053047703770377034C045004770339
:1041A000770377037703770377037703770377033F
:1041B000770377037703770377037703770377032F
:1041C000770377037703770377037703770377031F
:1041D000770377037703770377034C0450040A933C
:1041E0005D46FFF7EEBB0A93B94B12931BF020011B
:1041F00000F0FF80089B073323F00703596853F84A
:10420000082B08931BF0010F0AD052EA010307D0D4
:104210000A9B8DF8713030234BF0020B8DF8703013
:104220002BF480650223FFF762BB0A93FFF7B6BB4E
:104230000A93A84B1293D9E7089B012153F8042B4A
:1042400002918DF8E4200893059139ACFFF7B5BAD7
:104250001AEE101A26AA504602F04CFF00287FF4EE
:104260000EAD289E0DF1A40962E44021504602F0F3
:1042700041F820602061002800F0628640236361DD
:10428000FFF7A1B8039B0794062B214628BF0623FE
:10429000039422460293904C089705930C91109139
:1042A0000B91FFF764BA102F279B8C4D40F34E8281
:1042B00032461AEE106A05E009F10809103F102F86
:1042C00040F34382013310321021072BCDE927320E
:1042D000C9F80050C9F80410EEDD26AA3146504650
:1042E00002F008FF00287FF4CAACDDE927320DF1A7
:1042F000A409E3E70D9B059DCDF814B0DDF840B0AF
:10430000CDF82480E31803934A46149FDDF85C80BF
:104310000C9B0A941AEE109AB446BBF1000F30D0F1
:1043200093BB013F0BF1FF3B169BC2E90038279B73
:104330000133C444072BCDF8A0C0279362DC0832B8
:10434000039B38785B1B8342A8BF0346002B1E46A5
:104350000CDD279801309C440728C2E90053CDF8B2
:10436000A0C0279000F3598138780832002EACBFE6
:10437000841B0446002C0BDC05440C9BBBF1000F96
:10438000CED1002B00F0D4830C9B013B0C93CBE7E8
:10439000102C27981FDD1026634604E0103C102CDB
:1043A00002F1080216DD01304C4910330728C2E93A
:1043B0000016CDE92703F1DD26AA4946504602F052
:1043C00099FE00287FF45BAC103C102CDDE927033C
:1043D00029AAE8DC9C460130404B5460A4440728DD
:1043E000CDE9270C136000F3FA83387808320544CE
:1043F000C3E71BF0100300F0BC80089B53F8042BAC
:104400000893FFE626AA4946504602F073FE0028AC
:104410007FF435ACDDF8A0C029AA91E705F48060EF
:104420000026CDF8088005952D4BDDF850800AEE6A
:1044300090AA52AC4FF0CC3BB446054605E00A2AA0
:1044400071F1000134D352463946501840F1000052
:10445000A3FB006727F0030606EB9706801B161ADE
:1044600061F1000E0BFB06F703FB0E77A6FB03A61C
:1044700037440AF0010E0526AEFB066E30184FEAEF
:104480005A0A303004F8010C4AEAC77A0CF1010CE0
:10449000013C7F08002DD2D098F800008445CED191
:1044A000BCF1FF0FCBD00A2A71F1000180F05D81D1
:1044B000059DCDF8508052AB1B1BDDF80880CDF870
:1044C00034C01AEE90AAAB460593FFF7D7BA00BFE7
:1044D000F09700080498000818980008349800081D
:1044E000CDCCCCCC1AEE101A26AA5046189302F066
:1044F00001FE00287FF4C3AB9DF86F20289E189B17
:104500000DF1A409FFF790B80123C9F80430279BE7
:10451000BE4AC9F8002001330136072B289627939D
:1045200000F37A8109F10809002940F0AE800D9A64
:104530000BF0010313433FF4B8A8119B13999A1988
:10454000C9E90013279B28920133072B279300F317
:10455000598209F108090D99C9F8004001338E18F4
:10456000072BCDE92736C9F804107FF79CA8FFF781
:10457000D5BB1BF0400200F0BE80089850F8042B19
:104580000890194692B23DE61AEE101A26AA504635
:1045900002F0B0FD00287FF472AB289E0DF1A40953
:1045A000FFF7B3BA24AE0822002130461F94FEF76D
:1045B0007DFE039B5A1C00F0E8800025CDF80880A2
:1045C000CDF81CB0A8469B460CE039A9504600F037
:1045D000CBFC431C404400F00E84584508DC00F03E
:1045E0001A8480461F9A525933460435002AECD16A
:1045F000CDF81480DDF81CB0DDF80880D2E0164656
:1046000001332644072BC9F80050C9F80440CDE90E
:1046100027367FF748A8FFF781BB26AA49465046B0
:1046200002F068FD00287FF42AAB3878DDF8A0C0DE
:1046300029AA9BE61AEE101A26AA504602F05AFD45
:1046400000287FF41CAB289E0DF1A409FFF714B8D5
:10465000012B5D467FF4FEA9FFF7ACBB089B0499D4
:1046600053F8042B444611600893FEF7BEBEDDF8F4
:104670000C80C9F8005001372644072FCDE9277672
:10468000C9F804407FF73BAB86E4119B13989A1955
:10469000C9E90003279B28920133072B279300F3D6
:1046A000B18109F108090029BFF655AF4F42103119
:1046B000574D80F26A831AEE101A102605E009F1B0
:1046C0000809103F102F40F3608301331032072B8D
:1046D000C9E90056CDE92732F1DD26AA50460391FB
:1046E00002F008FD00287FF4CAAADDE92732039909
:1046F0000DF1A409E5E7089B1BF400711ABF1146F0
:1047000053F8042B53F8042B089318BFD2B279E561
:10471000089B15F400711ABF114653F8042B53F887
:10472000042B089318BFD2B20123FFF7E0B8089B0F
:104730001BF400711ABF114653F8042B53F8042BD5
:10474000089318BFD2B2FFF735B9164601333E447D
:10475000072BCDE92736C9F80050C9F8047000F3DB
:10476000438109F10809FFF7A6BB179B1699E41AC4
:104770001A46204602F08CFC98F80120254B0AB11D
:1047800008F101084FF0000C5DE600231946009681
:104790001FAA504600F00EFC03460133059000F0BE
:1047A0002A831F94059B002B44D0632B40F3188170
:1047B000591C504601F09EFD0446002800F01B8362
:1047C0000790082200213046FEF770FD059D0096F7
:1047D0002B461FAA2146504600F0ECFB854240F0D4
:1047E000BB83059908970023635421EAE1719DF882
:1047F0006F20039302910C9310930B93FEF7B7BFB6
:104800002D228DF86F20FEF7A1BF00BF2098000871
:1048100034980008CDCCCCCC1AEE101A26AA5046FB
:1048200002F068FC00287FF42AAA1D99289E0DF149
:10483000A40979E6059B9DF86F200897CDE902331E
:104840000C9310930B930793FEF791BF0D9A059964
:10485000A5186D1AD41AA542A8BF2546FFF760BB5C
:1048600013F9042B0893D1170B46FEF7EFBF089BF3
:10487000049953F8042B089311804446FEF7B5BD04
:10488000039E022124AB01931FAB009332461DAB64
:104890005046B0EE480AF0EE680A00F02DFC029B8C
:1048A000472B044600F09581462B00EB060505D109
:1048B0000378302B00F00E831D9E354451EC180B0D
:1048C00000220023FCF7FAF9002800F076812B463D
:1048D0001B1B0D93029B472B00F03B81029B462B39
:1048E00000F0FB811D9B0B930B9B029A013B412A1D
:1048F0001D9300F02D829DF828200021002BB8BFC9
:104900000B9B8DF88020BABFC3F101032D222B220F
:10491000092B8DF8812040F320820DF19705B74EC9
:104920002A46104686FB0321DA17C2EBA10202EBEE
:104930008201A3EB4101303100F8011C19466329C3
:10494000134600F1FF32ECDC3033D9B2831E9D42B6
:1049500002F8011C40F2CB8213460DF1820201E005
:1049600013F8011B02F8011B9D42F9D10DF19903C7
:104970000DF182021B1A134420AA9B1A15930D9B5A
:10498000159A012B1A44059240F33E82059B119A19
:1049900013440593099B059A23F4806343F4807BB9
:1049A00022EAE27200230C93029210930B93189B5D
:1049B000002B40F0DC809DF86F200393FEF7D7BEFC
:1049C00020460897FBF7FCFB01460590FEF722BF47
:1049D0001AEE101A26AA504602F08CFBFEF7DFBD35
:1049E0000023079339ACECE61AEE101A26AA5046BB
:1049F00002F080FB00287FF442A9289E0DF1A40953
:104A0000FFF759BA1AEE101A26AA504602F072FBA6
:104A100000287FF434A9DDE927321D990DF1A4099E
:104A200041E606230393FFF79DBB039B02215E1C17
:104A300028E7039E032125E71DA8B0EE480AF0EE03
:104A4000680A02F0EFFA00224FF07F5351EC100B8E
:104A5000FBF7CCFE0022002306460F46FCF72EF99A
:104A600008B101231D93664B0593039BCDF82C8061
:104A7000013B0AEE90AACDE90C9BDDF814A010943E
:104A80002546984606E00022002308F1FF38FCF78F
:104A900015F9E8B95B4B002230463946FBF7A6FE14
:104AA0000F460646FCF752F90446FBF735FE0B4667
:104AB000024639463046FBF7E1FC1AF80430B8F1FB
:104AC000FF3FAB46C14605F8013B06460F46DAD12B
:104AD0004D4BDDF82C80CDF82C9000223046394625
:104AE000DDF83090CDF830B01AEE90AADDF834B091
:104AF0000D94109CFCF70AF9002840F06081424BAD
:104B0000304639460022FCF7D9F818B10D9BDE0774
:104B100000F155810B9B002B07DB0B9B01332B44D2
:104B2000302205F8012BAB42FBD12B1B0D93D1E6B4
:104B30000A9C0D9BDDF814B0DDF824801497E3186F
:104B40009D4291462A4628BF1A4666460592FFF7BF
:104B5000B9B91D9B0B93DD1C02DB039A93420DDD5B
:104B60000A9B023B0A9323F020030293BCE62D220A
:104B700000238DF86F200393FEF7FCBD0B9B0D9A6D
:104B80009342C0F2D880099B13F0010F0B9B00F0F9
:104B90004081119A13440593099B590503D50B9B3A
:104BA000002B00F33F81059B23EAE3730293672305
:104BB0000A9300230C931093F9E6249BAB42BFF4B5
:104BC00087AE30215A1C24921970249B9D42F9D83B
:104BD0007EE6099BDB0700F1B980249B78E626AAD4
:104BE0004946504602F086FA00287FF448A83878F3
:104BF000DDF8A0C029AA0544FFF7BFBB676666665B
:104C000004980008000030400000E03F78238DF851
:104C1000713030238DF870304BF002030993039B01
:104C2000632B00F3A9800023079339ACDDE90E1252
:104C30000A9B002A23F020034BF4817B029322DBA2
:104C4000002342EC181B18930A9B612B7FF49AAA4D
:104C5000B0EE480AF0EE680A1DA802F0E3F900225F
:104C60004FF07F5351EC100BFBF7C0FD00220023E7
:104C700006460F46FCF722F808B101231D93AD4B01
:104C80000593F2E60793DDE90E2303F1004308EEF6
:104C9000903A2D2308EE102A1893D5E71AEE101A31
:104CA00026AA504602F026FA00287EF4E8AF289E95
:104CB0000DF1A409FFF7F8B81AEE101A26AA50460B
:104CC00002F018FA00287EF4DAAF1D9B289E0DF141
:104CD000A409FFF70DB9582399E71D9A099B0B9278
:104CE000002A03F0010340F3118103990B4340F0C4
:104CF000C1800B9B059366230A93099B5A0500F11B
:104D00009380059B23EAE373029352E71AEE101A8D
:104D100026AA504602F0EEF900287EF4B0AF1D9CA2
:104D20000D9B289E1C1B0DF1A409FFF7F9B800226A
:104D30000392FEF787BB0D9B119A9A180B9B059265
:104D4000002B40F3BD8067230A93D6E7A519B5E58C
:104D50000A9A0F32D2B20121D0E5002940F0AD808D
:104D600030228DF882200DF18302303302F8013BAE
:104D700020ABD31A159302E6591C504601F0BAFA3B
:104D80000446002837D0079050E701333A44072BF8
:104D9000CDE92732C9F80050C9F804707FF7D9ABC4
:104DA0001AEE101A26AA504602F0A4F900287EF442
:104DB00066AFDDE927320DF1A409FFF7CCBB0C9BF0
:104DC000059A2493D17B15F8013C8B422A4609D1E0
:104DD000302002F8010C249A531E249312F8013C4F
:104DE0009942F6D0392B0BBF059B01339B7ADBB27E
:104DF00002F8013C99E61AEE102AB2F90C3043F0A1
:104E000040039381FEF7CFBB099BD8077FF5C2AD66
:104E1000BCE50593C0E6039BDDF80880DDF81CB017
:104E20000593BFE467230A9314990B78FF2B00F0D6
:104E30008F8000250B9A284603E001300131FF2BBB
:104E400008D0934206DAD21A4B78002BF5D10B78B2
:104E50000135F4E70B92149110900C950C9A109B6D
:104E600017991344059A01FB0323059323EAE3737F
:104E700002939CE5119BD5182944662305910A935A
:104E80003BE7039B0293059373239DF86F200897DC
:104E900003900C9010900A93FEF769BC0F9B264C70
:104EA000002BB4BF2D229DF86F20244BB8BF8DF886
:104EB0006F202BF0800BFEF74DBC0DF1820254E702
:104EC000C3F101031A4422EAE273029367230592B5
:104ED0000A936EE651EC180B00220023FBF7EEFE5E
:104EE00000287FF4E9ACC6F101061D96E5E4022333
:104EF000159344E5089A98F80130884652F8041B47
:104F0000089241EAE1710391FEF79ABA039A1343BA
:104F100005D10123662202930A92059349E6119B6B
:104F20005D1C2A4422EAE2730293662305920A93E7
:104F30003FE600BFF0970008E8970008EC970008EC
:104F40000C23CAF800304FF0FF330493FEF732BB56
:104F500000230C93109381E71AEE102A938943F0F3
:104F600040039381FEF78BBE70B5054684B05BB1FC
:104F70001C4669B10E4B2846D3F8E0602346B04783
:104F8000431C0FD004B070BD00F58A740029F1D124
:104F9000074A2346D2F8E06028460A4601A9B047EE
:104FA000431CEFD100228A2322602B6004B070BD25
:104FB0003804002010B582B0049CCDE900344FF0D5
:104FC000FF3302F09BF902B010BD00BF2DE9F04F96
:104FD00003690C69A34283B0C0F28780013C01F1F0
:104FE0001405A30000F11408009355F8243058F874
:104FF0002420013381469A4208EB840005EB8407A4
:105000000190B2FBF3F63BD34FF0000CAE464046A6
:10501000E24663465EF804BB02681FFA8BFC06FB9F
:105020000C334FEA134C4FEA1B4B06FB0BCC9BB2E5
:10503000AAEB03031FFA8CFA13FA82F3CAEB1242AB
:1050400002EB23429BB243EA0243774540F8043B1C
:105050004FEA224A4FEA1C43DCD2009B58F8033047
:1050600073B9019B043B984504D307E0984504F1CC
:10507000FF3403D253F80429002AF7D0C9F81040AE
:10508000484601F087FE00282BDB0136414600230D
:1050900055F8040BD1F800C082B29A1A030C12FA28
:1050A0008CF2C3EB1C4303EB224392B242EA03426D
:1050B000AF4241F8042B4FEA2343E9D258F82420A9
:1050C00008EB84036AB9043B984504D307E098458C
:1050D00004F1FF3403D253F80429002AF7D0C9F8A9
:1050E0001040304603B0BDE8F08F002003B0BDE8AB
:1050F000F08F00BF000000002DE9F04F2DED068B72
:1051000095B08DED020B0191016C249D099259EC33
:10511000108B0446069341B1426C4A6001239340D0
:105120008B6001F0D7FB00232364B9F1000AB4BF00
:10513000012300232B607C4BBCBF2AF0004ACDF832
:105140000CA033EA0A0300F0B3809DED027B00223D
:1051500051EC170BB0EE479AF0EE679A0023FBF77D
:10516000ADFD074688B1069A01231360259B002BED
:1051700000F0CE836D4B259A1360013B009300989D
:1051800015B0BDEC068BBDE8F08F12AA13A920461E
:10519000B0EE490AF0EE690A01F0C8FEB0EE498AA5
:1051A000F0EE698A5FEA1A56054640F09980DDE91B
:1051B00012763E4406F23243202B40F3C283C3F101
:1051C00040030AFA03FA06F2124328FA03F04AEA05
:1051D0000000FBF791FA0123013E0D93A1F1F87154
:1051E000534B0022FBF74AF949A3D3E90023FBF70D
:1051F000FDFA49A3D3E90023FBF742F98046304684
:105200008946FBF789FA46A3D3E90023FBF7EEFAB8
:1052100002460B4640464946FBF732F9804689462E
:10522000FBF794FD00228346002340464946FBF7E6
:105230004FFD002840F05F83BBF1160F00F24E8354
:105240003C4B03EBCB03D3E9002351EC190BFBF7E9
:105250003FFD002874D00023BF1B0C937B1E0BF175
:10526000FF3B049300F1418300230893BBF1000F3F
:105270006DDA089BCDF814B0A3EB0B030893CBF1C8
:1052800000030B93019B092B4FF0000B68D8052BF3
:1052900040F35583043B01930026019B023B032B03
:1052A00000F2A486DFE813F0660463045B043E04A6
:1052B000069ACAF3130A42F20F735AEA080A1360F5
:1052C0001DD1259B002B00F0A0861B4B00930833BB
:1052D000259A0098136015B0BDEC068BBDE8F08FE1
:1052E00018EE903AC3F3130351EC190B43F07F51BE
:1052F0000D97A6F2FF36129F41F4401170E7259BEF
:10530000002B40F0F0830D4B009338E7AFF30080A3
:1053100061436F63A787D23FB3C8608B288AC63FBB
:10532000FB799F501344D33F0000F07F2198000881
:105330000000F83F90990008449800085098000831
:10534000BF1B7B1E049300F19B840C900890049B70
:105350005B44CDE9043B00230B93019B092B96D9B9
:10536000002301264FF0FF3201930A96079209931A
:10537000079B0F9300216164204601F085FA00909D
:10538000002800F03B86009B2364079B0E2B00F255
:105390001E81002E00F01B810599002940F37284C4
:1053A000D04B01F00F0203EBC2034FEA2118C905ED
:1053B000D3E9006740F12E84CB4B51EC190BD3E9B4
:1053C0000823FBF73DFB41EC180B08F00F084FF0EA
:1053D000030AB8F1000F13D0DFF80C9318F0010F97
:1053E00009D030463946D9E90023FBF7FFF90AF125
:1053F000010A06460F465FEA680809F10809EDD17F
:1054000051EC180B32463B46FBF71AFB41EC1A0BEA
:105410000C9B5BB157EC1A6BB44B1AEE100A0022CE
:105420003946FBF755FC002840F04E855046FBF707
:1054300073F953EC1A2BFBF7D9F9AD4B0022FBF7AC
:105440001FF8079B8046A1F15079002B00F0A58042
:10545000059B1093079B0E930A9B002B00F0BC84C6
:105460000E9AA04BA349DDF800A003EBC20353E959
:1054700002230020FBF7E4FA42464B46FAF7FEFF10
:1054800059EC1A8B41EC180B49461AEE100AFBF73F
:105490005DFC0746FBF740F902460B461AEE100A80
:1054A0004946FAF7EBFF303706460AF8017B0F460C
:1054B000324651EC180B3B46FBF728FC002840F025
:1054C0004F854FF000080AEE105ACDF844B055460B
:1054D0005BEC18AB08EE104A44462BE00E9B0134FF
:1054E0009C4280F24D85844B504659460022FBF782
:1054F0007DF9814B002282468B4630463946FBF7C8
:1055000075F989468046FBF721FC0746FBF704F94D
:1055100002460B4640464946FAF7B0FF303705F8D9
:10552000017B52465B4606460F46FBF7D1FB00283F
:1055300040F0118532463B466C490020FAF79EFF49
:1055400052465B46FBF7C4FB0028C7D0109B009A6D
:105550000593AA4618EE104A1AEE105A02E0524578
:1055600000F0E384D1461AF8013D392BF7D001331E
:10557000DBB28AF80030059B0133059398E1504671
:10558000FBF7CAF853EC1A2BFBF730F9584B002203
:10559000FAF776FF8046A1F15079584B002251EC82
:1055A0001A0BFAF76BFF42464B4606460F46FBF7CF
:1055B000ADFB8246002840F0C8843046394642465A
:1055C00009F10043FBF784FB002840F05783139B4D
:1055D000002BC0F29580059A0E2A00F39180414B72
:1055E00003EBC203D3E90089099B002B1BDA079B5D
:1055F000002B18DC40F04083404B002240464946D7
:10560000FBF7F4F802460B4651EC190BFBF76AFB6B
:10561000DDF81CA05646002800F0C482099BDDF886
:105620000080DF43C6E242464B4651EC190BFBF7C4
:1056300007FAFBF78BFB06468346FBF76DF84246FD
:105640004B46FBF7D3F80B46024651EC190BFAF721
:1056500015FFDDF800A0334630330AF8013B079B05
:10566000012B00F071834FF0010B08EE105A08EE89
:10567000904A1D465446DA461DE042464B463046A7
:105680003946FBF7DDF9FBF761FB8346FBF744F88E
:1056900042464B46FBF7AAF80AF1010A0B460246BE
:1056A00039463046FAF7EAFE0BF13003AA4504F812
:1056B000013B00F04483104B0022FBF797F80022D7
:1056C000002306460F46FBF7F9FA0028D5D0A2467C
:1056D00018EE105A18EE904A059B01330593D146F7
:1056E000E6E000BF90990008689900080000F03FCC
:1056F00000001C400000E03F000024400000144077
:105700000A9A002A00F00C81019A012A40F39D8236
:10571000079B03F1FF380B9B434580F260820B9B94
:10572000CDF82C80A8EB03039B444FF00008079BA7
:10573000002BC0F23B83049A1A440492089A17463D
:105740001A4408920121204601F070F9064667B11B
:10575000049A002A09DD0899BA421346A8BF3B46BD
:10576000C91AFF1AD31A089104930B9B63B10A9BC1
:10577000002B00F0BF82B8F1000F00F333820B9BC7
:10578000B3EB080240F022830121204601F04EF9DC
:10579000BBF1000F824600F3D980019B012B40F33F
:1057A000A9814FF000080120BBF1000F40F0DA8022
:1057B000049B184410F01F0000F09A81C0F12003F0
:1057C000042B00F3B28040F02D82089B002B05DDF6
:1057D00029461A46204601F065FA0546049B002B2F
:1057E00005DD51461A46204601F05CFA82460C9BC4
:1057F000002B40F05D81079B002B40F344810A9B06
:10580000002B40F0C780059B01330593DDF8008035
:10581000DDF81C90012707E0294600230A222046D4
:1058200001F062F80137054651462846FFF7CEFBE6
:10583000B94500F1300008F8010BEDDC079A002AA9
:10584000C8BF9346009AD8BF4FF0010B034693445C
:105850000027294601222046019301F023FA5146F0
:10586000054601F097FA002840F3E4811BF8013C5B
:10587000009A0BF1FF3B04E05A4500F0F6811BF85B
:10588000013D392B0BF10109F6D001338BF80030C3
:105890005146204601F01EF856B12FB1B74203D051
:1058A0003946204601F016F83146204601F012F83C
:1058B0002946204601F00EF8002389F80030DDE982
:1058C00005231A60259B002B3FF459AC0098C3F8C0
:1058D000009015B0BDEC068BBDE8F08F0123BF1B17
:1058E0000C937B1E04937FF5BFACC7F101030893B3
:1058F00000230493BAE45846FAF70EFF42464B469B
:10590000FBF7DCF900287FF497AC0BF1FF3B93E445
:10591000BD4B0093009815B0BDEC068BBDE8F08F31
:10592000DDF82C80089F0A9E11E7C0F11C00089B3F
:1059300003440893049B03440744049345E701266A
:10594000ABE4C3F1200308FA03F042E401465A46EF
:10595000204601F047F9019B012B824640F3BE81AE
:105960004FF00008DAF810300AEB8303186901F0F1
:105970000DF8C0F120001BE7314600230A22204623
:1059800000F0B2FF0F9B002B064640F31983CDF8C1
:1059900014900793002F00F31B81B8F1000F40F023
:1059A000EE81B046029B009F079903F001027B1E27
:1059B0001944019B0A9213430891099351462846C2
:1059C000FFF704FB31468346284601F0E3F94246DF
:1059D00051468146204601F0FFF9C26801460BF1AD
:1059E0003003002A42D104902846079301F0D2F9EF
:1059F00004990290204600F06DFF029A079B1AB9A5
:105A00000999002900F0C482B9F1000FC0F2798130
:105A1000019949EA01090A9951EA090900F07181DD
:105A2000002A00F3C781089A3B7007F101099742E9
:105A3000CB4600F0C581294600230A22204600F00B
:105A400053FF4645054631464FF000034FF00A022A
:105A5000204612D000F048FF4146064600230A22A5
:105A6000204600F041FF4F468046A7E720460293BC
:105A700000F030FF029B0122C6E700F035FF4F46E1
:105A8000064680469AE7019B022B7ADC0A9B002B94
:105A900080D1059B5146013328460593FFF796FABE
:105AA000DDF800B000F130030BF8013B0027D0E631
:105AB0005146284601F06EF90028BFF69CAE2946F3
:105AC00000230A22204600F00FFF059B03F1FF3957
:105AD0000A9B0546002B7FF44FAF0F9B002B40F332
:105AE0005E82079392E6494B00930333FFF7F0BBC6
:105AF0001C201CE7DDE9021200297FF452AEC2F33C
:105B00001303002B7FF44DAE414B1340002B00F0EC
